{
  "address": "0x47A97031F2135D53DC443C586502BFf11d777309",
  "abi": [
    {
      "anonymous": false,
      "inputs": [
        {
          "indexed": true,
          "internalType": "address",
          "name": "taker",
          "type": "address"
        },
        {
          "indexed": false,
          "internalType": "address[]",
          "name": "path",
          "type": "address[]"
        },
        {
          "indexed": false,
          "internalType": "uint256",
          "name": "amountInOffered",
          "type": "uint256"
        },
        {
          "indexed": false,
          "internalType": "uint256",
          "name": "amountOutExpected",
          "type": "uint256"
        },
        {
          "indexed": false,
          "internalType": "uint256[]",
          "name": "amounts",
          "type": "uint256[]"
        },
        {
          "indexed": false,
          "internalType": "uint256",
          "name": "unitradeFee",
          "type": "uint256"
        }
      ],
      "name": "OrderExecuted",
      "type": "event"
    },
    {
      "anonymous": false,
      "inputs": [
        {
          "indexed": true,
          "internalType": "address",
          "name": "previousOwner",
          "type": "address"
        },
        {
          "indexed": true,
          "internalType": "address",
          "name": "newOwner",
          "type": "address"
        }
      ],
      "name": "OwnershipTransferred",
      "type": "event"
    },
    {
      "inputs": [
        {
          "internalType": "enum UniTradeMarketOrders.SwapType",
          "name": "swapType",
          "type": "uint8"
        },
        {
          "internalType": "address[]",
          "name": "path",
          "type": "address[]"
        },
        {
          "internalType": "uint256",
          "name": "amountInOffered",
          "type": "uint256"
        },
        {
          "internalType": "uint256",
          "name": "amountOutExpected",
          "type": "uint256"
        }
      ],
      "name": "executeOrder",
      "outputs": [
        {
          "internalType": "uint256[]",
          "name": "amounts",
          "type": "uint256[]"
        }
      ],
      "stateMutability": "payable",
      "type": "function"
    },
    {
      "inputs": [
        {
          "internalType": "contract UniTradeOrderBook",
          "name": "_orderBook",
          "type": "address"
        }
      ],
      "name": "initialize",
      "outputs": [],
      "stateMutability": "nonpayable",
      "type": "function"
    },
    {
      "inputs": [],
      "name": "orderBook",
      "outputs": [
        {
          "internalType": "contract UniTradeOrderBook",
          "name": "",
          "type": "address"
        }
      ],
      "stateMutability": "view",
      "type": "function"
    },
    {
      "inputs": [],
      "name": "owner",
      "outputs": [
        {
          "internalType": "address",
          "name": "",
          "type": "address"
        }
      ],
      "stateMutability": "view",
      "type": "function"
    },
    {
      "inputs": [],
      "name": "renounceOwnership",
      "outputs": [],
      "stateMutability": "nonpayable",
      "type": "function"
    },
    {
      "inputs": [],
      "name": "stakeAndBurn",
      "outputs": [],
      "stateMutability": "nonpayable",
      "type": "function"
    },
    {
      "inputs": [
        {
          "internalType": "address",
          "name": "newOwner",
          "type": "address"
        }
      ],
      "name": "transferOwnership",
      "outputs": [],
      "stateMutability": "nonpayable",
      "type": "function"
    },
    {
      "inputs": [],
      "name": "uniswapV2Factory",
      "outputs": [
        {
          "internalType": "contract IUniswapV2Factory",
          "name": "",
          "type": "address"
        }
      ],
      "stateMutability": "view",
      "type": "function"
    },
    {
      "inputs": [],
      "name": "uniswapV2Router",
      "outputs": [
        {
          "internalType": "contract IUniswapV2Router02",
          "name": "",
          "type": "address"
        }
      ],
      "stateMutability": "view",
      "type": "function"
    },
    {
      "stateMutability": "payable",
      "type": "receive"
    }
  ],
  "transactionHash": "0xcff9e011cb65400a1e521d6c3884e18120e549553c88e80b11195fdd4a71d133",
  "args": [],
  "solcInputHash": "75e69aba2bcfe20369fef6516fd418bf",
  "bytecode": "0x608060405234801561001057600080fd5b5061234c806100206000396000f3fe60806040526004361061008a5760003560e01c8063776af5ba11610059578063776af5ba146101f55780638da5cb5b1461020a578063c4d66de81461021f578063e8b0d7bf14610252578063f2fde38b1461026757610091565b80630b081600146100965780631694505e1461019857806359d0f713146101c9578063715018a6146101de57610091565b3661009157005b600080fd5b610148600480360360808110156100ac57600080fd5b60ff82351691908101906040810160208201356401000000008111156100d157600080fd5b8201836020820111156100e357600080fd5b8035906020019184602083028401116401000000008311171561010557600080fd5b919080806020026020016040519081016040528093929190818152602001838360200280828437600092019190915250929550508235935050506020013561029a565b60408051602080825283518183015283519192839290830191858101910280838360005b8381101561018457818101518382015260200161016c565b505050509050019250505060405180910390f35b3480156101a457600080fd5b506101ad6113d3565b604080516001600160a01b039092168252519081900360200190f35b3480156101d557600080fd5b506101ad6113e2565b3480156101ea57600080fd5b506101f36113f1565b005b34801561020157600080fd5b506101ad6114af565b34801561021657600080fd5b506101ad6114be565b34801561022b57600080fd5b506101f36004803603602081101561024257600080fd5b50356001600160a01b03166114cd565b34801561025e57600080fd5b506101f361168e565b34801561027357600080fd5b506101f36004803603602081101561028a57600080fd5b50356001600160a01b031661197e565b6060600260655414156102f4576040805162461bcd60e51b815260206004820152601f60248201527f5265656e7472616e637947756172643a207265656e7472616e742063616c6c00604482015290519081900360640190fd5b6002606555609754604080516315ab88c960e31b8152905133926000926001600160a01b039091169163ad5c464891600480820192602092909190829003018186803b15801561034357600080fd5b505afa158015610357573d6000803e3d6000fd5b505050506040513d602081101561036d57600080fd5b505186519091506000908790829061038157fe5b6020026020010151905060008760018951038151811061039d57fe5b602090810291909101015190508660018a60028111156103b957fe5b146105b05760028a60028111156103cc57fe5b141561043157836001600160a01b0316826001600160a01b031614610431576040805162461bcd60e51b81526020600482015260166024820152750a8ded6cadc40deeae840daeae6e840c4ca40ae8aa8960531b604482015290519081900360640190fd5b6000836001600160a01b03166370a08231306040518263ffffffff1660e01b815260040180826001600160a01b0316815260200191505060206040518083038186803b15801561048057600080fd5b505afa158015610494573d6000803e3d6000fd5b505050506040513d60208110156104aa57600080fd5b505190506104ba84333085611a93565b6000846001600160a01b03166370a08231306040518263ffffffff1660e01b815260040180826001600160a01b0316815260200191505060206040518083038186803b15801561050957600080fd5b505afa15801561051d573d6000803e3d6000fd5b505050506040513d602081101561053357600080fd5b50519050826105428284611bef565b14610554576105518183611bef565b92505b600083116105a9576040805162461bcd60e51b815260206004820152601c60248201527f496e76616c69642066696e616c206f66666572656420616d6f756e7400000000604482015290519081900360640190fd5b505061060e565b836001600160a01b0316836001600160a01b03161461060e576040805162461bcd60e51b81526020600482015260156024820152740a8ded6cadc40d2dc40daeae6e840c4ca40ae8aa89605b1b604482015290519081900360640190fd5b600060018b600281111561061e57fe5b1461063b5760975461063b9085906001600160a01b031684611c51565b60008b600281111561064957fe5b1415610cd9576000610758609960009054906101000a90046001600160a01b03166001600160a01b03166389a447e06040518163ffffffff1660e01b815260040160206040518083038186803b1580156106a257600080fd5b505afa1580156106b6573d6000803e3d6000fd5b505050506040513d60208110156106cc57600080fd5b50516099546040805163029f0d3d60e51b8152905161ffff90931692610752926001600160a01b0316916353e1a7a0916004808301926020929190829003018186803b15801561071b57600080fd5b505afa15801561072f573d6000803e3d6000fd5b505050506040513d602081101561074557600080fd5b5051869061ffff16611dba565b90611e1a565b90506000846001600160a01b03166370a08231896040518263ffffffff1660e01b815260040180826001600160a01b0316815260200191505060206040518083038186803b1580156107a957600080fd5b505afa1580156107bd573d6000803e3d6000fd5b505050506040513d60208110156107d357600080fd5b50516097549091506001600160a01b0316635c11d7956107f38685611bef565b8c8f8c6000196040518663ffffffff1660e01b81526004018086815260200185815260200180602001846001600160a01b03168152602001838152602001828103825285818151815260200191508051906020019060200280838360005b83811015610869578181015183820152602001610851565b505050509050019650505050505050600060405180830381600087803b15801561089257600080fd5b505af11580156108a6573d6000803e3d6000fd5b505050506000856001600160a01b03166370a082318a6040518263ffffffff1660e01b815260040180826001600160a01b0316815260200191505060206040518083038186803b1580156108f957600080fd5b505afa15801561090d573d6000803e3d6000fd5b505050506040513d602081101561092357600080fd5b505160408051600280825260608201835292935091906020830190803683370190505099506109528584611bef565b8a60008151811061095f57fe5b60209081029190910101526109748183611bef565b8a60018151811061098157fe5b60209081029190910101528215610cd1576000610a1788609760009054906101000a90046001600160a01b03166001600160a01b031663ad5c46486040518163ffffffff1660e01b815260040160206040518083038186803b1580156109e657600080fd5b505afa1580156109fa573d6000803e3d6000fd5b505050506040513d6020811015610a1057600080fd5b5051611e81565b9050609760009054906101000a90046001600160a01b03166001600160a01b031663ad5c46486040518163ffffffff1660e01b815260040160206040518083038186803b158015610a6757600080fd5b505afa158015610a7b573d6000803e3d6000fd5b505050506040513d6020811015610a9157600080fd5b5051604080516370a0823160e01b815230600482015290516001600160a01b03909216916370a0823191602480820192602092909190829003018186803b158015610adb57600080fd5b505afa158015610aef573d6000803e3d6000fd5b505050506040513d6020811015610b0557600080fd5b505160975460405163791ac94760e01b81526004810187815260006024830181905230606484018190526000196084850181905260a060448601908152885160a48701528851979a506001600160a01b039096169663791ac947968c9694958a95909260c490910190602087810191028083838b5b83811015610b92578181015183820152602001610b7a565b505050509050019650505050505050600060405180830381600087803b158015610bbb57600080fd5b505af1158015610bcf573d6000803e3d6000fd5b50505050609760009054906101000a90046001600160a01b03166001600160a01b031663ad5c46486040518163ffffffff1660e01b815260040160206040518083038186803b158015610c2157600080fd5b505afa158015610c35573d6000803e3d6000fd5b505050506040513d6020811015610c4b57600080fd5b5051604080516370a0823160e01b815230600482015290516001600160a01b03909216916370a0823191602480820192602092909190829003018186803b158015610c9557600080fd5b505afa158015610ca9573d6000803e3d6000fd5b505050506040513d6020811015610cbf57600080fd5b50519150610ccd8284611bef565b9450505b5050506112e2565b60028b6002811115610ce757fe5b1415610fa1576000479050609760009054906101000a90046001600160a01b03166001600160a01b031663791ac947848b8e306000196040518663ffffffff1660e01b81526004018086815260200185815260200180602001846001600160a01b03168152602001838152602001828103825285818151815260200191508051906020019060200280838360005b83811015610d8d578181015183820152602001610d75565b505050509050019650505050505050600060405180830381600087803b158015610db657600080fd5b505af1158015610dca573d6000803e3d6000fd5b5050604080516002808252606082018352479450909250906020830190803683370190505098508389600081518110610dff57fe5b6020908102919091010152610e148183611bef565b89600181518110610e2157fe5b602002602001018181525050610f4f609960009054906101000a90046001600160a01b03166001600160a01b03166389a447e06040518163ffffffff1660e01b815260040160206040518083038186803b158015610e7e57600080fd5b505afa158015610e92573d6000803e3d6000fd5b505050506040513d6020811015610ea857600080fd5b50516099546040805163029f0d3d60e51b8152905161ffff90931692610752926001600160a01b0316916353e1a7a0916004808301926020929190829003018186803b158015610ef757600080fd5b505afa158015610f0b573d6000803e3d6000fd5b505050506040513d6020811015610f2157600080fd5b50518c5161ffff909116908d906001908110610f3957fe5b6020026020010151611dba90919063ffffffff16565b92506000610f7a848b600181518110610f6457fe5b6020026020010151611bef90919063ffffffff16565b1115610f9a57610f9a88610f95858c600181518110610f6457fe5b611f02565b50506112e2565b60018b6002811115610faf57fe5b14156112e2576099546040805163044d223f60e51b8152905134926110b0926001600160a01b03909116916389a447e091600480820192602092909190829003018186803b15801561100057600080fd5b505afa158015611014573d6000803e3d6000fd5b505050506040513d602081101561102a57600080fd5b50516099546040805163029f0d3d60e51b8152905161ffff90931692610752926001600160a01b0316916353e1a7a0916004808301926020929190829003018186803b15801561107957600080fd5b505afa15801561108d573d6000803e3d6000fd5b505050506040513d60208110156110a357600080fd5b5051849061ffff16611dba565b91506000846001600160a01b03166370a08231896040518263ffffffff1660e01b815260040180826001600160a01b0316815260200191505060206040518083038186803b15801561110157600080fd5b505afa158015611115573d6000803e3d6000fd5b505050506040513d602081101561112b57600080fd5b50516097549091506001600160a01b031663b6f9de9561114b8486611bef565b8c8f8c6000196040518663ffffffff1660e01b81526004018085815260200180602001846001600160a01b03168152602001838152602001828103825285818151815260200191508051906020019060200280838360005b838110156111bb5781810151838201526020016111a3565b50505050905001955050505050506000604051808303818588803b1580156111e257600080fd5b505af11580156111f6573d6000803e3d6000fd5b50505050506000856001600160a01b03166370a082318a6040518263ffffffff1660e01b815260040180826001600160a01b0316815260200191505060206040518083038186803b15801561124a57600080fd5b505afa15801561125e573d6000803e3d6000fd5b505050506040513d602081101561127457600080fd5b505160408051600280825260608201835292935091906020830190803683370190505099506112a38385611bef565b8a6000815181106112b057fe5b60209081029190910101526112c58183611bef565b8a6001815181106112d257fe5b6020026020010181815250505050505b856001600160a01b03167f718f223910cc75313d9c13a0f35e7088c058a4ddd62c8f72d11918c8727326a68b8b8b8b86604051808060200186815260200185815260200180602001848152602001838103835288818151815260200191508051906020019060200280838360005b83811015611368578181015183820152602001611350565b50505050905001838103825285818151815260200191508051906020019060200280838360005b838110156113a757818101518382015260200161138f565b5050505090500197505050505050505060405180910390a2505060016065555092979650505050505050565b6097546001600160a01b031681565b6098546001600160a01b031681565b6113f9611ff5565b6001600160a01b031661140a6114be565b6001600160a01b031614611465576040805162461bcd60e51b815260206004820181905260248201527f4f776e61626c653a2063616c6c6572206973206e6f7420746865206f776e6572604482015290519081900360640190fd5b6033546040516000916001600160a01b0316907f8be0079c531659141344cd1fd0a4f28419497f9722a3daafe3b4186f6b6457e0908390a3603380546001600160a01b0319169055565b6099546001600160a01b031681565b6033546001600160a01b031690565b600054610100900460ff16806114e657506114e6611ff9565b806114f4575060005460ff16155b61152f5760405162461bcd60e51b815260040180806020018281038252602e815260200180612281602e913960400191505060405180910390fd5b600054610100900460ff1615801561155a576000805460ff1961ff0019909116610100171660011790555b61156261200a565b816001600160a01b0316631694505e6040518163ffffffff1660e01b815260040160206040518083038186803b15801561159b57600080fd5b505afa1580156115af573d6000803e3d6000fd5b505050506040513d60208110156115c557600080fd5b5051609780546001600160a01b0319166001600160a01b03928316179055604080516359d0f71360e01b81529051918416916359d0f71391600480820192602092909190829003018186803b15801561161d57600080fd5b505afa158015611631573d6000803e3d6000fd5b505050506040513d602081101561164757600080fd5b5051609880546001600160a01b03199081166001600160a01b039384161790915560998054909116918416919091179055801561168a576000805461ff00191690555b5050565b47801561197b576000611798609960009054906101000a90046001600160a01b03166001600160a01b0316637e5a71876040518163ffffffff1660e01b815260040160206040518083038186803b1580156116e857600080fd5b505afa1580156116fc573d6000803e3d6000fd5b505050506040513d602081101561171257600080fd5b50516099546040805163225df8e560e21b8152905161ffff90931692610752926001600160a01b031691638977e394916004808301926020929190829003018186803b15801561176157600080fd5b505afa158015611775573d6000803e3d6000fd5b505050506040513d602081101561178b57600080fd5b5051859061ffff16611dba565b9050801561188c57609960009054906101000a90046001600160a01b03166001600160a01b0316631d44810d6040518163ffffffff1660e01b815260040160206040518083038186803b1580156117ee57600080fd5b505afa158015611802573d6000803e3d6000fd5b505050506040513d602081101561181857600080fd5b50516040805163044df8e760e41b815290516001600160a01b03909216916344df8e70918491600480830192602092919082900301818588803b15801561185e57600080fd5b505af1158015611872573d6000803e3d6000fd5b50505050506040513d602081101561188957600080fd5b50505b60006118988383611bef565b9050801561197857609960009054906101000a90046001600160a01b03166001600160a01b0316635ebaf1db6040518163ffffffff1660e01b815260040160206040518083038186803b1580156118ee57600080fd5b505afa158015611902573d6000803e3d6000fd5b505050506040513d602081101561191857600080fd5b505160408051630d0e30db60e41b815290516001600160a01b039092169163d0e30db0918491600480830192600092919082900301818588803b15801561195e57600080fd5b505af1158015611972573d6000803e3d6000fd5b50505050505b50505b50565b611986611ff5565b6001600160a01b03166119976114be565b6001600160a01b0316146119f2576040805162461bcd60e51b815260206004820181905260248201527f4f776e61626c653a2063616c6c6572206973206e6f7420746865206f776e6572604482015290519081900360640190fd5b6001600160a01b038116611a375760405162461bcd60e51b815260040180806020018281038252602681526020018061225b6026913960400191505060405180910390fd5b6033546040516001600160a01b038084169216907f8be0079c531659141344cd1fd0a4f28419497f9722a3daafe3b4186f6b6457e090600090a3603380546001600160a01b0319166001600160a01b0392909216919091179055565b604080516001600160a01b0385811660248301528481166044830152606480830185905283518084039091018152608490920183526020820180516001600160e01b03166323b872dd60e01b178152925182516000948594938a169392918291908083835b60208310611b175780518252601f199092019160209182019101611af8565b6001836020036101000a0380198251168184511680821785525050505050509050019150506000604051808303816000865af19150503d8060008114611b79576040519150601f19603f3d011682016040523d82523d6000602084013e611b7e565b606091505b5091509150818015611bac575080511580611bac5750808060200190516020811015611ba957600080fd5b50515b611be75760405162461bcd60e51b81526004018080602001828103825260248152602001806122f36024913960400191505060405180910390fd5b505050505050565b600082821115611c46576040805162461bcd60e51b815260206004820152601e60248201527f536166654d6174683a207375627472616374696f6e206f766572666c6f770000604482015290519081900360640190fd5b508082035b92915050565b604080516001600160a01b038481166024830152604480830185905283518084039091018152606490920183526020820180516001600160e01b031663095ea7b360e01b1781529251825160009485949389169392918291908083835b60208310611ccd5780518252601f199092019160209182019101611cae565b6001836020036101000a0380198251168184511680821785525050505050509050019150506000604051808303816000865af19150503d8060008114611d2f576040519150601f19603f3d011682016040523d82523d6000602084013e611d34565b606091505b5091509150818015611d62575080511580611d625750808060200190516020811015611d5f57600080fd5b50515b611db3576040805162461bcd60e51b815260206004820152601e60248201527f5472616e7366657248656c7065723a20415050524f56455f4641494c45440000604482015290519081900360640190fd5b5050505050565b600082611dc957506000611c4b565b82820282848281611dd657fe5b0414611e135760405162461bcd60e51b81526004018080602001828103825260218152602001806122af6021913960400191505060405180910390fd5b9392505050565b6000808211611e70576040805162461bcd60e51b815260206004820152601a60248201527f536166654d6174683a206469766973696f6e206279207a65726f000000000000604482015290519081900360640190fd5b818381611e7957fe5b049392505050565b604080516002808252606080830184529260009291906020830190803683370190505090508381600081518110611eb457fe5b60200260200101906001600160a01b031690816001600160a01b0316815250508281600181518110611ee257fe5b6001600160a01b0390921660209283029190910190910152905092915050565b604080516000808252602082019092526001600160a01b0384169083906040518082805190602001908083835b60208310611f4e5780518252601f199092019160209182019101611f2f565b6001836020036101000a03801982511681845116808217855250505050505090500191505060006040518083038185875af1925050503d8060008114611fb0576040519150601f19603f3d011682016040523d82523d6000602084013e611fb5565b606091505b50509050806119785760405162461bcd60e51b81526004018080602001828103825260238152602001806122d06023913960400191505060405180910390fd5b3390565b6000612004306120bb565b15905090565b600054610100900460ff16806120235750612023611ff9565b80612031575060005460ff16155b61206c5760405162461bcd60e51b815260040180806020018281038252602e815260200180612281602e913960400191505060405180910390fd5b600054610100900460ff16158015612097576000805460ff1961ff0019909116610100171660011790555b61209f6120c1565b6120a7612161565b801561197b576000805461ff001916905550565b3b151590565b600054610100900460ff16806120da57506120da611ff9565b806120e8575060005460ff16155b6121235760405162461bcd60e51b815260040180806020018281038252602e815260200180612281602e913960400191505060405180910390fd5b600054610100900460ff161580156120a7576000805460ff1961ff001990911661010017166001179055801561197b576000805461ff001916905550565b600054610100900460ff168061217a575061217a611ff9565b80612188575060005460ff16155b6121c35760405162461bcd60e51b815260040180806020018281038252602e815260200180612281602e913960400191505060405180910390fd5b600054610100900460ff161580156121ee576000805460ff1961ff0019909116610100171660011790555b60006121f8611ff5565b603380546001600160a01b0319166001600160a01b038316908117909155604051919250906000907f8be0079c531659141344cd1fd0a4f28419497f9722a3daafe3b4186f6b6457e0908290a350801561197b576000805461ff00191690555056fe4f776e61626c653a206e6577206f776e657220697320746865207a65726f2061646472657373496e697469616c697a61626c653a20636f6e747261637420697320616c726561647920696e697469616c697a6564536166654d6174683a206d756c7469706c69636174696f6e206f766572666c6f775472616e7366657248656c7065723a204554485f5452414e534645525f4641494c45445472616e7366657248656c7065723a205452414e534645525f46524f4d5f4641494c4544a26469706673582212207e3f5485393d1c24e277d8e4405f5399d7842915802fddc0ea90b8bc6511f31f64736f6c63430007060033",
  "devdoc": {
    "kind": "dev",
    "methods": {
      "owner()": {
        "details": "Returns the address of the current owner."
      },
      "renounceOwnership()": {
        "details": "Leaves the contract without owner. It will not be possible to call `onlyOwner` functions anymore. Can only be called by the current owner. NOTE: Renouncing ownership will leave the contract without an owner, thereby removing any functionality that is only available to the owner."
      },
      "transferOwnership(address)": {
        "details": "Transfers ownership of the contract to a new account (`newOwner`). Can only be called by the current owner."
      }
    },
    "version": 1
  },
  "userdoc": {
    "kind": "user",
    "methods": {},
    "version": 1
  },
  "storageLayout": {
    "storage": [
      {
        "astId": 492,
        "contract": "contracts/UniTradeMarketOrders.sol:UniTradeMarketOrders",
        "label": "_initialized",
        "offset": 0,
        "slot": "0",
        "type": "t_bool"
      },
      {
        "astId": 495,
        "contract": "contracts/UniTradeMarketOrders.sol:UniTradeMarketOrders",
        "label": "_initializing",
        "offset": 1,
        "slot": "0",
        "type": "t_bool"
      },
      {
        "astId": 917,
        "contract": "contracts/UniTradeMarketOrders.sol:UniTradeMarketOrders",
        "label": "__gap",
        "offset": 0,
        "slot": "1",
        "type": "t_array(t_uint256)50_storage"
      },
      {
        "astId": 10,
        "contract": "contracts/UniTradeMarketOrders.sol:UniTradeMarketOrders",
        "label": "_owner",
        "offset": 0,
        "slot": "51",
        "type": "t_address"
      },
      {
        "astId": 129,
        "contract": "contracts/UniTradeMarketOrders.sol:UniTradeMarketOrders",
        "label": "__gap",
        "offset": 0,
        "slot": "52",
        "type": "t_array(t_uint256)49_storage"
      },
      {
        "astId": 932,
        "contract": "contracts/UniTradeMarketOrders.sol:UniTradeMarketOrders",
        "label": "_status",
        "offset": 0,
        "slot": "101",
        "type": "t_uint256"
      },
      {
        "astId": 975,
        "contract": "contracts/UniTradeMarketOrders.sol:UniTradeMarketOrders",
        "label": "__gap",
        "offset": 0,
        "slot": "102",
        "type": "t_array(t_uint256)49_storage"
      },
      {
        "astId": 1780,
        "contract": "contracts/UniTradeMarketOrders.sol:UniTradeMarketOrders",
        "label": "uniswapV2Router",
        "offset": 0,
        "slot": "151",
        "type": "t_contract(IUniswapV2Router02)1595"
      },
      {
        "astId": 1782,
        "contract": "contracts/UniTradeMarketOrders.sol:UniTradeMarketOrders",
        "label": "uniswapV2Factory",
        "offset": 0,
        "slot": "152",
        "type": "t_contract(IUniswapV2Factory)1199"
      },
      {
        "astId": 1784,
        "contract": "contracts/UniTradeMarketOrders.sol:UniTradeMarketOrders",
        "label": "orderBook",
        "offset": 0,
        "slot": "153",
        "type": "t_contract(UniTradeOrderBook)4294"
      }
    ],
    "types": {
      "t_address": {
        "encoding": "inplace",
        "label": "address",
        "numberOfBytes": "20"
      },
      "t_array(t_uint256)49_storage": {
        "base": "t_uint256",
        "encoding": "inplace",
        "label": "uint256[49]",
        "numberOfBytes": "1568"
      },
      "t_array(t_uint256)50_storage": {
        "base": "t_uint256",
        "encoding": "inplace",
        "label": "uint256[50]",
        "numberOfBytes": "1600"
      },
      "t_bool": {
        "encoding": "inplace",
        "label": "bool",
        "numberOfBytes": "1"
      },
      "t_contract(IUniswapV2Factory)1199": {
        "encoding": "inplace",
        "label": "contract IUniswapV2Factory",
        "numberOfBytes": "20"
      },
      "t_contract(IUniswapV2Router02)1595": {
        "encoding": "inplace",
        "label": "contract IUniswapV2Router02",
        "numberOfBytes": "20"
      },
      "t_contract(UniTradeOrderBook)4294": {
        "encoding": "inplace",
        "label": "contract UniTradeOrderBook",
        "numberOfBytes": "20"
      },
      "t_uint256": {
        "encoding": "inplace",
        "label": "uint256",
        "numberOfBytes": "32"
      }
    }
  }
}