{
  "address": "0x5e4e64FEB555ccaB8A08d32E53ee62530Bb91E45",
  "abi": [
    {
      "anonymous": false,
      "inputs": [
        {
          "indexed": true,
          "internalType": "address",
          "name": "depositor",
          "type": "address"
        },
        {
          "indexed": false,
          "internalType": "uint256",
          "name": "amount",
          "type": "uint256"
        }
      ],
      "name": "Deposit",
      "type": "event"
    },
    {
      "anonymous": false,
      "inputs": [
        {
          "indexed": true,
          "internalType": "address",
          "name": "staker",
          "type": "address"
        },
        {
          "indexed": false,
          "internalType": "uint256",
          "name": "unitradeIn",
          "type": "uint256"
        }
      ],
      "name": "Stake",
      "type": "event"
    },
    {
      "anonymous": false,
      "inputs": [
        {
          "indexed": true,
          "internalType": "address",
          "name": "staker",
          "type": "address"
        },
        {
          "indexed": false,
          "internalType": "uint256",
          "name": "unitradeOut",
          "type": "uint256"
        },
        {
          "indexed": false,
          "internalType": "uint256",
          "name": "reward",
          "type": "uint256"
        }
      ],
      "name": "Withdraw",
      "type": "event"
    },
    {
      "inputs": [],
      "name": "deposit",
      "outputs": [],
      "stateMutability": "payable",
      "type": "function"
    },
    {
      "inputs": [
        {
          "internalType": "address",
          "name": "_unitrade",
          "type": "address"
        }
      ],
      "name": "initialize",
      "outputs": [],
      "stateMutability": "nonpayable",
      "type": "function"
    },
    {
      "inputs": [],
      "name": "payout",
      "outputs": [
        {
          "internalType": "uint256",
          "name": "reward",
          "type": "uint256"
        }
      ],
      "stateMutability": "nonpayable",
      "type": "function"
    },
    {
      "inputs": [
        {
          "internalType": "uint256",
          "name": "unitradeIn",
          "type": "uint256"
        }
      ],
      "name": "stake",
      "outputs": [],
      "stateMutability": "nonpayable",
      "type": "function"
    },
    {
      "inputs": [
        {
          "internalType": "address",
          "name": "",
          "type": "address"
        }
      ],
      "name": "staked",
      "outputs": [
        {
          "internalType": "uint256",
          "name": "",
          "type": "uint256"
        }
      ],
      "stateMutability": "view",
      "type": "function"
    },
    {
      "inputs": [
        {
          "internalType": "address",
          "name": "",
          "type": "address"
        }
      ],
      "name": "timelock",
      "outputs": [
        {
          "internalType": "uint256",
          "name": "",
          "type": "uint256"
        }
      ],
      "stateMutability": "view",
      "type": "function"
    },
    {
      "inputs": [],
      "name": "totalEthReceived",
      "outputs": [
        {
          "internalType": "uint256",
          "name": "",
          "type": "uint256"
        }
      ],
      "stateMutability": "view",
      "type": "function"
    },
    {
      "inputs": [],
      "name": "totalStake",
      "outputs": [
        {
          "internalType": "uint256",
          "name": "",
          "type": "uint256"
        }
      ],
      "stateMutability": "view",
      "type": "function"
    },
    {
      "inputs": [],
      "name": "withdraw",
      "outputs": [
        {
          "internalType": "uint256",
          "name": "unitradeOut",
          "type": "uint256"
        },
        {
          "internalType": "uint256",
          "name": "reward",
          "type": "uint256"
        }
      ],
      "stateMutability": "nonpayable",
      "type": "function"
    }
  ],
  "transactionHash": "0x27cafac9d5fad9f53bfc4c570633ff30fce39271f8c7879b1e3149a3a418526d",
  "args": [],
  "solcInputHash": "75e69aba2bcfe20369fef6516fd418bf",
  "bytecode": "0x608060405234801561001057600080fd5b50610f4d806100206000396000f3fe6080604052600436106100865760003560e01c806398807d841161005957806398807d8414610128578063a694fc3a1461015b578063a9a18dda14610187578063c4d66de81461019c578063d0e30db0146101cf57610086565b80633ccfd60b1461008b57806363bd1d4a146100b95780636b143bb8146100e05780638b0e9f3f14610113575b600080fd5b34801561009757600080fd5b506100a06101d7565b6040805192835260208301919091528051918290030190f35b3480156100c557600080fd5b506100ce610306565b60408051918252519081900360200190f35b3480156100ec57600080fd5b506100ce6004803603602081101561010357600080fd5b50356001600160a01b0316610426565b34801561011f57600080fd5b506100ce610438565b34801561013457600080fd5b506100ce6004803603602081101561014b57600080fd5b50356001600160a01b031661043e565b34801561016757600080fd5b506101856004803603602081101561017e57600080fd5b5035610450565b005b34801561019357600080fd5b506100ce61052a565b3480156101a857600080fd5b50610185600480360360208110156101bf57600080fd5b50356001600160a01b0316610530565b6101856105ee565b60008060026001541415610220576040805162461bcd60e51b815260206004820152601f6024820152600080516020610e62833981519152604482015290519081900360640190fd5b60026001553360009081526038602052604090205442101561027b576040805162461bcd60e51b815260206004820152600f60248201526e14dd185ad9481a5cc81b1bd8dad959608a1b604482015290519081900360640190fd5b610283610720565b6040805183815260208101839052815193955091935033927ff279e6a1f5e320cca91135676d9cb6e44ca8a08c0b88342bcdb1144f6511b5689281900390910190a2336000818152603860205260408120556033546102ee916001600160a01b039091169084610804565b80156102fe576102fe338261096d565b600180559091565b60006002600154141561034e576040805162461bcd60e51b815260206004820152601f6024820152600080516020610e62833981519152604482015290519081900360640190fd5b600260015560008061035e610720565b6040805183815260208101839052815193955091935033927ff279e6a1f5e320cca91135676d9cb6e44ca8a08c0b88342bcdb1144f6511b5689281900390910190a2809250600083116103ed576040805162461bcd60e51b8152602060048201526012602482015271139bdd1a1a5b99c81d1bc81c185e481bdd5d60721b604482015290519081900360640190fd5b6103f7338461096d565b61040082610a65565b61040d4262278d00610b45565b3360009081526038602052604090205550506001805590565b60386020526000908152604090205481565b60345481565b60376020526000908152604090205481565b60026001541415610496576040805162461bcd60e51b815260206004820152601f6024820152600080516020610e62833981519152604482015290519081900360640190fd5b6002600155806104e0576040805162461bcd60e51b815260206004820152601060248201526f4e6f7468696e6720746f207374616b6560801b604482015290519081900360640190fd5b6104e981610a65565b6104f64262278d00610b45565b33600081815260386020526040902091909155603354610523916001600160a01b03909116903084610ba8565b5060018055565b60365481565b600054610100900460ff16806105495750610549610d04565b80610557575060005460ff16155b6105925760405162461bcd60e51b815260040180806020018281038252602e815260200180610e82602e913960400191505060405180910390fd5b600054610100900460ff161580156105bd576000805460ff1961ff0019909116610100171660011790555b603380546001600160a01b0319166001600160a01b03841617905580156105ea576000805461ff00191690555b5050565b60026001541415610634576040805162461bcd60e51b815260206004820152601f6024820152600080516020610e62833981519152604482015290519081900360640190fd5b600260015534610680576040805162461bcd60e51b8152602060048201526012602482015271139bdd1a1a5b99c81d1bc819195c1bdcda5d60721b604482015290519081900360640190fd5b6000603454116106c8576040805162461bcd60e51b815260206004820152600e60248201526d139bdd1a1a5b99c81cdd185ad95960921b604482015290519081900360640190fd5b6036546106d59034610b45565b60365560408051348152905133917fe1fffcc4923d04b559f4d29a8bfc6cda04eb5b0d3c460751c2402c5c5cc9109c919081900360200190a261071a34603454610d15565b60018055565b336000908152603760205260408120548190610774576040805162461bcd60e51b815260206004820152600e60248201526d139bdd1a1a5b99c81cdd185ad95960921b604482015290519081900360640190fd5b33600090815260376020908152604080832054603a83528184205460399093529220546035549294506107d0926107ca91670de0b6b3a7640000916107c4916107bd9190610d3e565b8790610d9b565b90610df4565b90610b45565b6034549091506107e09083610d3e565b603455336000908152603a6020908152604080832083905560379091528120559091565b604080516001600160a01b038481166024830152604480830185905283518084039091018152606490920183526020820180516001600160e01b031663a9059cbb60e01b1781529251825160009485949389169392918291908083835b602083106108805780518252601f199092019160209182019101610861565b6001836020036101000a0380198251168184511680821785525050505050509050019150506000604051808303816000865af19150503d80600081146108e2576040519150601f19603f3d011682016040523d82523d6000602084013e6108e7565b606091505b5091509150818015610915575080511580610915575080806020019051602081101561091257600080fd5b50515b610966576040805162461bcd60e51b815260206004820152601f60248201527f5472616e7366657248656c7065723a205452414e534645525f4641494c454400604482015290519081900360640190fd5b5050505050565b604080516000808252602082019092526001600160a01b0384169083906040518082805190602001908083835b602083106109b95780518252601f19909201916020918201910161099a565b6001836020036101000a03801982511681845116808217855250505050505090500191505060006040518083038185875af1925050503d8060008114610a1b576040519150601f19603f3d011682016040523d82523d6000602084013e610a20565b606091505b5050905080610a605760405162461bcd60e51b8152600401808060200182810382526023815260200180610ed16023913960400191505060405180910390fd5b505050565b3360009081526037602052604081205415610aa857600080610a85610720565b336000908152603a60209081526040808320939093556037905220819055925050505b33600090815260376020526040902054610ac29083610b45565b33600090815260376020908152604080832093909355603554603990915291902055603454610af19083610b45565b6034558015610b0b57603454610b079082610b45565b6034555b60408051838152905133917febedb8b3c678666e7f36970bc8f57abf6d8fa2e828c0da91ea5b75bf68ed101a919081900360200190a25050565b600082820183811015610b9f576040805162461bcd60e51b815260206004820152601b60248201527f536166654d6174683a206164646974696f6e206f766572666c6f770000000000604482015290519081900360640190fd5b90505b92915050565b604080516001600160a01b0385811660248301528481166044830152606480830185905283518084039091018152608490920183526020820180516001600160e01b03166323b872dd60e01b178152925182516000948594938a169392918291908083835b60208310610c2c5780518252601f199092019160209182019101610c0d565b6001836020036101000a0380198251168184511680821785525050505050509050019150506000604051808303816000865af19150503d8060008114610c8e576040519150601f19603f3d011682016040523d82523d6000602084013e610c93565b606091505b5091509150818015610cc1575080511580610cc15750808060200190516020811015610cbe57600080fd5b50515b610cfc5760405162461bcd60e51b8152600401808060200182810382526024815260200180610ef46024913960400191505060405180910390fd5b505050505050565b6000610d0f30610e5b565b15905090565b610d37610d2e826107c485670de0b6b3a7640000610d9b565b60355490610b45565b6035555050565b600082821115610d95576040805162461bcd60e51b815260206004820152601e60248201527f536166654d6174683a207375627472616374696f6e206f766572666c6f770000604482015290519081900360640190fd5b50900390565b600082610daa57506000610ba2565b82820282848281610db757fe5b0414610b9f5760405162461bcd60e51b8152600401808060200182810382526021815260200180610eb06021913960400191505060405180910390fd5b6000808211610e4a576040805162461bcd60e51b815260206004820152601a60248201527f536166654d6174683a206469766973696f6e206279207a65726f000000000000604482015290519081900360640190fd5b818381610e5357fe5b049392505050565b3b15159056fe5265656e7472616e637947756172643a207265656e7472616e742063616c6c00496e697469616c697a61626c653a20636f6e747261637420697320616c726561647920696e697469616c697a6564536166654d6174683a206d756c7469706c69636174696f6e206f766572666c6f775472616e7366657248656c7065723a204554485f5452414e534645525f4641494c45445472616e7366657248656c7065723a205452414e534645525f46524f4d5f4641494c4544a2646970667358221220450bffbc9bb2fb9096464c0037e778e923c34cb5a53d563aa8ec5a6045835b9b64736f6c63430007060033",
  "devdoc": {
    "kind": "dev",
    "methods": {},
    "version": 1
  },
  "userdoc": {
    "kind": "user",
    "methods": {},
    "version": 1
  },
  "storageLayout": {
    "storage": [
      {
        "astId": 492,
        "contract": "contracts/UniTradeStaker.sol:UniTradeStaker",
        "label": "_initialized",
        "offset": 0,
        "slot": "0",
        "type": "t_bool"
      },
      {
        "astId": 495,
        "contract": "contracts/UniTradeStaker.sol:UniTradeStaker",
        "label": "_initializing",
        "offset": 1,
        "slot": "0",
        "type": "t_bool"
      },
      {
        "astId": 932,
        "contract": "contracts/UniTradeStaker.sol:UniTradeStaker",
        "label": "_status",
        "offset": 0,
        "slot": "1",
        "type": "t_uint256"
      },
      {
        "astId": 975,
        "contract": "contracts/UniTradeStaker.sol:UniTradeStaker",
        "label": "__gap",
        "offset": 0,
        "slot": "2",
        "type": "t_array(t_uint256)49_storage"
      },
      {
        "astId": 4314,
        "contract": "contracts/UniTradeStaker.sol:UniTradeStaker",
        "label": "unitrade",
        "offset": 0,
        "slot": "51",
        "type": "t_address"
      },
      {
        "astId": 4319,
        "contract": "contracts/UniTradeStaker.sol:UniTradeStaker",
        "label": "totalStake",
        "offset": 0,
        "slot": "52",
        "type": "t_uint256"
      },
      {
        "astId": 4321,
        "contract": "contracts/UniTradeStaker.sol:UniTradeStaker",
        "label": "totalWeight",
        "offset": 0,
        "slot": "53",
        "type": "t_uint256"
      },
      {
        "astId": 4323,
        "contract": "contracts/UniTradeStaker.sol:UniTradeStaker",
        "label": "totalEthReceived",
        "offset": 0,
        "slot": "54",
        "type": "t_uint256"
      },
      {
        "astId": 4327,
        "contract": "contracts/UniTradeStaker.sol:UniTradeStaker",
        "label": "staked",
        "offset": 0,
        "slot": "55",
        "type": "t_mapping(t_address,t_uint256)"
      },
      {
        "astId": 4331,
        "contract": "contracts/UniTradeStaker.sol:UniTradeStaker",
        "label": "timelock",
        "offset": 0,
        "slot": "56",
        "type": "t_mapping(t_address,t_uint256)"
      },
      {
        "astId": 4335,
        "contract": "contracts/UniTradeStaker.sol:UniTradeStaker",
        "label": "weighted",
        "offset": 0,
        "slot": "57",
        "type": "t_mapping(t_address,t_uint256)"
      },
      {
        "astId": 4339,
        "contract": "contracts/UniTradeStaker.sol:UniTradeStaker",
        "label": "accumulated",
        "offset": 0,
        "slot": "58",
        "type": "t_mapping(t_address,t_uint256)"
      }
    ],
    "types": {
      "t_address": {
        "encoding": "inplace",
        "label": "address",
        "numberOfBytes": "20"
      },
      "t_array(t_uint256)49_storage": {
        "base": "t_uint256",
        "encoding": "inplace",
        "label": "uint256[49]",
        "numberOfBytes": "1568"
      },
      "t_bool": {
        "encoding": "inplace",
        "label": "bool",
        "numberOfBytes": "1"
      },
      "t_mapping(t_address,t_uint256)": {
        "encoding": "mapping",
        "key": "t_address",
        "label": "mapping(address => uint256)",
        "numberOfBytes": "32",
        "value": "t_uint256"
      },
      "t_uint256": {
        "encoding": "inplace",
        "label": "uint256",
        "numberOfBytes": "32"
      }
    }
  }
}