{
  "address": "0x71Ed0E361fccE06aE19c5179322c963d7F7d3139",
  "abi": [
    {
      "anonymous": false,
      "inputs": [
        {
          "indexed": false,
          "internalType": "uint256",
          "name": "etherIn",
          "type": "uint256"
        },
        {
          "indexed": false,
          "internalType": "uint256",
          "name": "tokensBurned",
          "type": "uint256"
        }
      ],
      "name": "UniTradeBurned",
      "type": "event"
    },
    {
      "anonymous": false,
      "inputs": [
        {
          "indexed": false,
          "internalType": "uint256",
          "name": "etherIn",
          "type": "uint256"
        }
      ],
      "name": "UniTradeToBurn",
      "type": "event"
    },
    {
      "inputs": [],
      "name": "burn",
      "outputs": [
        {
          "internalType": "bool",
          "name": "",
          "type": "bool"
        }
      ],
      "stateMutability": "payable",
      "type": "function"
    },
    {
      "inputs": [
        {
          "internalType": "contract IUniswapV2Router02",
          "name": "_uniswapV2Router",
          "type": "address"
        },
        {
          "internalType": "address",
          "name": "_unitrade",
          "type": "address"
        }
      ],
      "name": "initialize",
      "outputs": [],
      "stateMutability": "nonpayable",
      "type": "function"
    },
    {
      "inputs": [],
      "name": "uniswapV2Router",
      "outputs": [
        {
          "internalType": "contract IUniswapV2Router02",
          "name": "",
          "type": "address"
        }
      ],
      "stateMutability": "view",
      "type": "function"
    },
    {
      "inputs": [],
      "name": "unitrade",
      "outputs": [
        {
          "internalType": "address",
          "name": "",
          "type": "address"
        }
      ],
      "stateMutability": "view",
      "type": "function"
    }
  ],
  "transactionHash": "0x69fd4e644b835bfb514e891dc04217335b73b5847c6ea1a0e56a0751f39a14bc",
  "args": [],
  "solcInputHash": "75e69aba2bcfe20369fef6516fd418bf",
  "bytecode": "0x608060405234801561001057600080fd5b506105f0806100206000396000f3fe60806040526004361061003f5760003560e01c80631694505e1461004457806344df8e7014610075578063485cc95514610091578063b7608a62146100ce575b600080fd5b34801561005057600080fd5b506100596100e3565b604080516001600160a01b039092168252519081900360200190f35b61007d6100f8565b604080519115158252519081900360200190f35b34801561009d57600080fd5b506100cc600480360360408110156100b457600080fd5b506001600160a01b038135811691602001351661047d565b005b3480156100da57600080fd5b50610059610566565b6000546201000090046001600160a01b031681565b6000803411610140576040805162461bcd60e51b815260206004820152600f60248201526e2737ba3434b733903a3790313ab93760891b604482015290519081900360640190fd5b6040805134815290517f5bad187373824dddeea34d189e1a76b63a78aaf68003f3590eeacade309672d39181900360200190a1600254620151800142101561018a5750600161047a565b426002908155604080518281526060810182526000929091602083019080368337019050509050600060029054906101000a90046001600160a01b03166001600160a01b031663ad5c46486040518163ffffffff1660e01b815260040160206040518083038186803b1580156101ff57600080fd5b505afa158015610213573d6000803e3d6000fd5b505050506040513d602081101561022957600080fd5b50518151829060009061023857fe5b6001600160a01b039283166020918202929092010152600180548351921691839190811061026257fe5b60200260200101906001600160a01b031690816001600160a01b03168152505060008060029054906101000a90046001600160a01b03166001600160a01b0316637ff36ab547600085306000196040518663ffffffff1660e01b81526004018085815260200180602001846001600160a01b03168152602001838152602001828103825285818151815260200191508051906020019060200280838360005b83811015610319578181015183820152602001610301565b50505050905001955050505050506000604051808303818588803b15801561034057600080fd5b505af1158015610354573d6000803e3d6000fd5b50505050506040513d6000823e601f3d908101601f19168201604052602081101561037e57600080fd5b810190808051604051939291908464010000000082111561039e57600080fd5b9083019060208201858111156103b357600080fd5b82518660208202830111640100000000821117156103d057600080fd5b82525081516020918201928201910280838360005b838110156103fd5781810151838201526020016103e5565b5050505090500160405250505090507f5f9429c564fcbb92997458f37c033570cb3d9d3837f6b5a2464549bdc02a57d68160008151811061043a57fe5b60200260200101518260018151811061044f57fe5b6020026020010151604051808381526020018281526020019250505060405180910390a16001925050505b90565b600054610100900460ff16806104965750610496610575565b806104a4575060005460ff16155b6104df5760405162461bcd60e51b815260040180806020018281038252602e81526020018061058d602e913960400191505060405180910390fd5b600054610100900460ff1615801561050a576000805460ff1961ff0019909116610100171660011790555b6000805462010000600160b01b031916620100006001600160a01b038681169190910291909117909155600180546001600160a01b031916918416919091179055426002558015610561576000805461ff00191690555b505050565b6001546001600160a01b031681565b600061058030610586565b15905090565b3b15159056fe496e697469616c697a61626c653a20636f6e747261637420697320616c726561647920696e697469616c697a6564a2646970667358221220d3377d47d8bfdf486582619758b5a201f5585b5bc322637f0fa1c69b345bd24564736f6c63430007060033",
  "devdoc": {
    "kind": "dev",
    "methods": {},
    "version": 1
  },
  "userdoc": {
    "kind": "user",
    "methods": {},
    "version": 1
  },
  "storageLayout": {
    "storage": [
      {
        "astId": 492,
        "contract": "contracts/UniTradeIncinerator.sol:UniTradeIncinerator",
        "label": "_initialized",
        "offset": 0,
        "slot": "0",
        "type": "t_bool"
      },
      {
        "astId": 495,
        "contract": "contracts/UniTradeIncinerator.sol:UniTradeIncinerator",
        "label": "_initializing",
        "offset": 1,
        "slot": "0",
        "type": "t_bool"
      },
      {
        "astId": 1616,
        "contract": "contracts/UniTradeIncinerator.sol:UniTradeIncinerator",
        "label": "uniswapV2Router",
        "offset": 2,
        "slot": "0",
        "type": "t_contract(IUniswapV2Router02)1595"
      },
      {
        "astId": 1618,
        "contract": "contracts/UniTradeIncinerator.sol:UniTradeIncinerator",
        "label": "unitrade",
        "offset": 0,
        "slot": "1",
        "type": "t_address"
      },
      {
        "astId": 1620,
        "contract": "contracts/UniTradeIncinerator.sol:UniTradeIncinerator",
        "label": "lastIncinerated",
        "offset": 0,
        "slot": "2",
        "type": "t_uint256"
      }
    ],
    "types": {
      "t_address": {
        "encoding": "inplace",
        "label": "address",
        "numberOfBytes": "20"
      },
      "t_bool": {
        "encoding": "inplace",
        "label": "bool",
        "numberOfBytes": "1"
      },
      "t_contract(IUniswapV2Router02)1595": {
        "encoding": "inplace",
        "label": "contract IUniswapV2Router02",
        "numberOfBytes": "20"
      },
      "t_uint256": {
        "encoding": "inplace",
        "label": "uint256",
        "numberOfBytes": "32"
      }
    }
  }
}